:020000020000FC
:0200000025C019
:02000C005FC0D3
:1000400054C03F065B4F666D7D077F6FF89418E0E4
:100050001EBF1FEF1DBF10E01093C1001093C20020
:1000600010E014B913E015B91FE317B910E018B97F
:100070001FEF1AB91FEF1BB910E014BD15E015BD35
:1000800011E010936E0013E010936B0011E01093D9
:100090006800002733274427552766277727789459
:1000A00008B970FD0AC0F0E0E2E4E50F14911BB955
:1000B000449A459811E0712F08C0F0E0E2E4E60FA1
:1000C00014911BB94498459A7727EACF1F931FB71D
:1000D0001F9313B1189901C00395199901C00A958E
:1000E0000F701F911FBF1F9118951F931FB71F936C
:1000F0004395423351F4442753955A3031F45527F0
:100100006395663011F4662755271F911FBF1F9115
:02011000189540
:00000001FF
