:020000020000FC
:0200000025C019
:02000C004FC0E3
:1000400044C03F065B4F666D7D077F6FF89418E0F4
:100050001EBF1FEF1DBF10E01093C1001093C20020
:1000600010E014B913E015B91FE017B910E018B982
:100070001FEF1AB91FEF1BB910E014BD15E015BD35
:1000800011E010936E0013E010936B0011E01093D9
:100090006800002733274427552723B1789408B9EF
:1000A000F0E0E2E4E50F14911BB9F9CF1F931FB7FD
:1000B0001F9313B1189901C00395199901C00A95AE
:1000C0000F701F911FBF1F9118951F931FB71F938C
:1000D0004395423329F4442753955A3009F4552760
:0800E0001F911FBF1F9118952D
:00000001FF
